{
    "contractName": "MyContract",
    "abi": [
        {
            "anonymous": false,
            "inputs": [
                {
                    "indexed": false,
                    "internalType": "uint16",
                    "name": "a",
                    "type": "uint16"
                },
                {
                    "indexed": false,
                    "internalType": "uint16",
                    "name": "b",
                    "type": "uint16"
                },
                {
                    "indexed": false,
                    "internalType": "uint16",
                    "name": "result",
                    "type": "uint16"
                }
            ],
            "name": "NumberAdded",
            "type": "event"
        },
        {
            "inputs": [
                {
                    "internalType": "uint16",
                    "name": "a",
                    "type": "uint16"
                },
                {
                    "internalType": "uint16",
                    "name": "b",
                    "type": "uint16"
                }
            ],
            "name": "addNumbers",
            "outputs": [
                {
                    "internalType": "uint16",
                    "name": "",
                    "type": "uint16"
                }
            ],
            "stateMutability": "pure",
            "type": "function"
        },
        {
            "inputs": [
                {
                    "internalType": "uint16",
                    "name": "value",
                    "type": "uint16"
                }
            ],
            "name": "multiplyByTwo",
            "outputs": [
                {
                    "internalType": "uint16",
                    "name": "",
                    "type": "uint16"
                }
            ],
            "stateMutability": "pure",
            "type": "function"
        },
        {
            "inputs": [
                {
                    "internalType": "uint16",
                    "name": "a",
                    "type": "uint16"
                },
                {
                    "internalType": "uint16",
                    "name": "b",
                    "type": "uint16"
                }
            ],
            "name": "eventFun",
            "outputs": [],
            "stateMutability": "nonpayable",
            "type": "function"
        }
    ],
    "bytecode": "0x608060405234801561001057600080fd5b5061032d806100206000396000f3fe608060405234801561001057600080fd5b50600436106100415760003560e01c806316554ad8146100465780636306eb551461006257806384899a4c14610092575b600080fd5b610060600480360381019061005b9190610187565b6100c2565b005b61007c600480360381019061007791906101c7565b610112565b6040516100899190610203565b60405180910390f35b6100ac60048036038101906100a79190610187565b61012d565b6040516100b99190610203565b60405180910390f35b600081836100d0919061024d565b90507f38d0d26812dab1e9035e201b397c1f6cc4d21dbee9d2a6fcad758377d85bc47f83838360405161010593929190610283565b60405180910390a1505050565b60008060028361012291906102ba565b905080915050919050565b600080828461013c919061024d565b90508091505092915050565b600080fd5b600061ffff82169050919050565b6101648161014d565b811461016f57600080fd5b50565b6000813590506101818161015b565b92915050565b6000806040838503121561019e5761019d610148565b5b60006101ac85828601610172565b92505060206101bd85828601610172565b9150509250929050565b6000602082840312156101dd576101dc610148565b5b60006101eb84828501610172565b91505092915050565b6101fd8161014d565b82525050565b600060208201905061021860008301846101f4565b92915050565b7f4e487b7100000000000000000000000000000000000000000000000000000000600052601160045260246000fd5b60006102588261014d565b91506102638361014d565b9250828201905061ffff81111561027d5761027c61021e565b5b92915050565b600060608201905061029860008301866101f4565b6102a560208301856101f4565b6102b260408301846101f4565b949350505050565b60006102c58261014d565b91506102d08361014d565b92508282026102de8161014d565b91508082146102f0576102ef61021e565b5b509291505056fea2646970667358221220c62cc4cefded0f34914dcb743ffe317b1b9ecc6df6cc2c41bbfa4efaba14040164736f6c63430008130033",
    "immutableReferences": {},
    "source": "// SPDX-License-Identifier: GPL-3.0\n\npragma solidity >=0.8.2 <0.9.0;\n\ncontract MyContract {\n event NumberAdded(uint16 a, uint16 b, uint16 result);\n\nfunction addNumbers(uint16 a, uint16 b) public pure returns (uint16) {\n    uint16 result = a + b;\n   return result;\n\n   }\nfunction multiplyByTwo(uint16 value) public pure returns (uint16) {\n    uint16 result = value * 2;\n    return result;\n     }\n\nfunction eventFun(uint16 a, uint16 b)public{\n    uint16 result=a+b;\n emit NumberAdded(a, b, result);\n}\n\n}",
    "sourcePath": "/home/ravi/rsrsrs/learn-web3/contracts/RetailContract.sol",
    "compiler": {
        "name": "solc",
        "version": "0.8.19+commit.7dd6d404.Emscripten.clang"
    },
    "schemaVersion": "3.4.13",
    "updatedAt": "2023-04-04T11:17:09.426Z",
    "devdoc": {
        "kind": "dev",
        "methods": {},
        "version": 1
    },
    "userdoc": {
        "kind": "user",
        "methods": {},
        "version": 1
    }
}